S02B0000433A5C6465765C4D6572704D6F645C4D6572704D6F645C6275696C645C4138444B313030495C4D65E4
S3150000000000E00000FFFF200000E00000FFFF2000EE
S3150000001000E0003000E0003400E0003800E0003C82
S3150000002000E0004000E0004400E0004800E0004C32
S3110000003000E0005000E0005400E0005822
S315000E14004138444B313030492E4138444B414130FE
S311000E1410312E3233313131300000000035
S309000E141C00000000B8
S30D000E1420FFFF100000000000A2
S315000E1428434F50595249474854203230313720419C
S315000E1438647269616E2050697374726974746F2C64
S315000E14482061696A6969383140676D61696C2E6316
S315000E14586F6D2E20554E415554484F52495A4544A4
S315000E146820444953545249425554494F4E205354D9
S315000E1478524943544C592050524F484942495445B3
S315000E1488442E204F4646524F414420555345204F31
S315000E14984E4C592E204E4F2057415252414E5459BA
S315000E14A82E205448495320534F46545741524520EF
S315000E14B84953204C4943454E53454420544F2059D1
S315000E14C84F55202241532049532C2220414E442069
S315000E14D8574954484F555420414E59205741525258
S315000E14E8414E5459204F4620414E59204B494E44A1
S315000E14F82C2057484554484552204F52414C2C20D3
S315000E15085752495454454E2C20455850524553531C
S315000E15182C20494D504C494544204F522053544196
S315000E15285455544F52592C20494E434C5544494E06
S315000E15384720425554204E4F54204C494D49544548
S315000E15484420544F2057415252414E544945532038
S315000E15584F46204D45524348414E544142494C4907
S315000E156854592C204649544E45535320464F522023
S315000E15784120504152544943554C415220505552E0
S315000E1588504F53452C20414E44204E4F4E494E4601
S311000E159852494E47454D454E542E00005C
S315000E15A400060010000E15C0000E15D8000E1618F3
S315000E15B4080000003B800000000000003F80000091
S315000E15C440000000404000004080000040A00000A3
S315000E15D440C000004509800045160000452F000056
S315000E15E445480000455AC000457A00004583400030
S315000E15F445898000458FC00045960000459C4000F5
S315000E160445A2800045AF000045BB800045C80000DA
S315000E161445D48000640064006400640064006400C1
S315000E16246400640064006400640064006400640082
S315000E16346400640064006400640064006400640072
S315000E16446400640064006400640064006400640062
S315000E16546400640064006400640064006400640052
S315000E16646400640064006400640064006400640042
S315000E16746400640064006400640064006400640032
S315000E16846400640064006400640064006400640022
S315000E16946400640064006400640064006400640012
S315000E16A46400640064006400640064006400640002
S315000E16B464006400640064006400640064006400F2
S315000E16C464006400640064006400640064006400E2
S315000E16D46400640000060010000E15C0000E15D836
S315000E16E4000E16F4080000003B8000000000000007
S315000E16F464006400640064006400640064006400B2
S315000E170464006400640064006400640064006400A1
S315000E17146400640064006400640064006400640091
S315000E17246400640064006400640064006400640081
S315000E17346400640064006400640064006400640071
S315000E17446400640064006400640064006400640061
S315000E17546400640064006400640064006400640051
S315000E17646400640064006400640064006400640041
S315000E17746400640064006400640064006400640031
S315000E17846400640064006400640064006400640021
S315000E17946400640064006400640064006400640011
S315000E17A46400640064006400640064006400640001
S315000E17B400060010000E15C0000E15D8000E17D028
S315000E17C4080000003B800000000000006400640076
S315000E17D464006400640064006400640064006400D1
S315000E17E464006400640064006400640064006400C1
S315000E17F464006400640064006400640064006400B1
S315000E180464006400640064006400640064006400A0
S315000E18146400640064006400640064006400640090
S315000E18246400640064006400640064006400640080
S315000E18346400640064006400640064006400640070
S315000E18446400640064006400640064006400640060
S315000E18546400640064006400640064006400640050
S315000E18646400640064006400640064006400640040
S315000E18746400640064006400640064006400640030
S315000E188464006400640064006400640000060010D2
S315000E1894000E15C0000E15D8000E18AC0800000078
S315000E18A43B800000000000006400640064006400D5
S315000E18B464006400640064006400640064006400F0
S315000E18C464006400640064006400640064006400E0
S315000E18D464006400640064006400640064006400D0
S315000E18E464006400640064006400640064006400C0
S315000E18F464006400640064006400640064006400B0
S315000E1904640064006400640064006400640064009F
S315000E1914640064006400640064006400640064008F
S315000E1924640064006400640064006400640064007F
S315000E1934640064006400640064006400640064006F
S315000E1944640064006400640064006400640064005F
S315000E1954640064006400640064006400640064004F
S315000E1964640064006400640000060010000E15C0D6
S315000E1974000E15D8000E1988080000003B800000E2
S315000E198400000000640064006400640064006400E7
S315000E1994640064006400640064006400640064000F
S315000E19A464006400640064006400640064006400FF
S315000E19B464006400640064006400640064006400EF
S315000E19C464006400640064006400640064006400DF
S315000E19D464006400640064006400640064006400CF
S315000E19E464006400640064006400640064006400BF
S315000E19F464006400640064006400640064006400AF
S315000E1A04640064006400640064006400640064009E
S315000E1A14640064006400640064006400640064008E
S315000E1A24640064006400640064006400640064007E
S315000E1A34640064006400640064006400640064006E
S315000E1A446400640000060010000E15C0000E15D8C2
S315000E1A54000E1A64080000003B800000000000001F
S315000E1A64640064006400640064006400640064003E
S315000E1A74640064006400640064006400640064002E
S315000E1A84640064006400640064006400640064001E
S315000E1A94640064006400640064006400640064000E
S315000E1AA464006400640064006400640064006400FE
S315000E1AB464006400640064006400640064006400EE
S315000E1AC464006400640064006400640064006400DE
S315000E1AD464006400640064006400640064006400CE
S315000E1AE464006400640064006400640064006400BE
S315000E1AF464006400640064006400640064006400AE
S315000E1B04640064006400640064006400640064009D
S315000E1B14640064006400640064006400640064008D
S315000E1B2400060010000E15C0000E15D8000E1B4040
S315000E1B34080000003B8000000000000000000000CA
S315000E1B44000000000000000000000000000000007D
S315000E1B54000000000000000000000000000000006D
S315000E1B64000000000000000000000000000000005D
S315000E1B74000000000000000000000000000000004D
S315000E1B84000000000000000000000000000000003D
S315000E1B94000000000000000000000000000000002D
S315000E1BA4000000000000000000000000000000001D
S315000E1BB4000000000000000000000000000000000D
S315000E1BC400000000000000000000000000000000FD
S315000E1BD400000000000000000000000000000000ED
S315000E1BE400000000000000000000000000000000DD
S315000E1BF400000000000000000000000000060010B7
S315000E1C04000E1C1C000E1C34000E1C740800000072
S315000E1C143F800000000000003F80000040000000EE
S315000E1C24404000004080000040A0000040C000007C
S315000E1C344509800045160000452F00004548000062
S315000E1C44455AC000457A0000458340004589800008
S315000E1C54458FC00045960000459C400045A2800075
S315000E1C6445AF000045BB800045C8000045D4800042
S315000E1C7407B707B707B707B707B707B707B707B75C
S315000E1C8407B707B707B707B707B707B707B707B74C
S315000E1C9407B707B707B707B707B707B707B707B73C
S315000E1CA407B707B707B707B707B707B707B707B72C
S315000E1CB407B707B707B707B707B707B707B707B71C
S315000E1CC407B707B707B707B707B707B707B707B70C
S315000E1CD407B707B707B707B707B707B707B707B7FC
S315000E1CE407B707B707B707B707B707B707B707B7EC
S315000E1CF407B707B707B707B707B707B707B707B7DC
S315000E1D0407B707B707B707B707B707B707B707B7CB
S315000E1D1407B707B707B707B707B707B707B707B7BB
S315000E1D2407B707B707B707B707B707B707B707B7AB
S315000E1D3400060010000E1C1C000E1C34000E1D5056
S315000E1D44080000003F8000000000000007D107D104
S315000E1D5407D107D107D107D107D107D107D107D1AB
S315000E1D6407D107D107D107D107D107D107D107D19B
S315000E1D7407D107D107D107D107D107D107D107D18B
S315000E1D8407D107D107D107D107D107D107D107D17B
S315000E1D9407D107D107D107D107D107D107D107D16B
S315000E1DA407D107D107D107D107D107D107D107D15B
S315000E1DB407D107D107D107D107D107D107D107D14B
S315000E1DC407D107D107D107D107D107D107D107D13B
S315000E1DD407D107D107D107D107D107D107D107D12B
S315000E1DE407D107D107D107D107D107D107D107D11B
S315000E1DF407D107D107D107D107D107D107D107D10B
S315000E1E0407D107D107D107D107D107D10006001094
S315000E1E14000E1C1C000E1C34000E1E2C08000000A6
S315000E1E243F8000000000000007B707B707B707B7E3
S315000E1E3407B707B707B707B707B707B707B707B79A
S315000E1E4407B707B707B707B707B707B707B707B78A
S315000E1E5407B707B707B707B707B707B707B707B77A
S315000E1E6407B707B707B707B707B707B707B707B76A
S315000E1E7407B707B707B707B707B707B707B707B75A
S315000E1E8407B707B707B707B707B707B707B707B74A
S315000E1E9407B707B707B707B707B707B707B707B73A
S315000E1EA407B707B707B707B707B707B707B707B72A
S315000E1EB407B707B707B707B707B707B707B707B71A
S315000E1EC407B707B707B707B707B707B707B707B70A
S315000E1ED407B707B707B707B707B707B707B707B7FA
S315000E1EE407B707B707B707B700060010000E1C1C86
S315000E1EF4000E1C34000E1F08080000003F80000070
S315000E1F040000000007D107D107D107D107D107D1A9
S315000E1F1407D107D107D107D107D107D107D107D1E9
S315000E1F2407D107D107D107D107D107D107D107D1D9
S315000E1F3407D107D107D107D107D107D107D107D1C9
S315000E1F4407D107D107D107D107D107D107D107D1B9
S315000E1F5407D107D107D107D107D107D107D107D1A9
S315000E1F6407D107D107D107D107D107D107D107D199
S315000E1F7407D107D107D107D107D107D107D107D189
S315000E1F8407D107D107D107D107D107D107D107D179
S315000E1F9407D107D107D107D107D107D107D107D169
S315000E1FA407D107D107D107D107D107D107D107D159
S315000E1FB407D107D107D107D107D107D107D107D149
S315000E1FC407D107D100060010000E1C1C000E1C348F
S315000E1FD4000E1FE4080000003F8000000000000011
S315000E1FE407B707B707B707B707B707B707B707B7E9
S315000E1FF407B707B707B707B707B707B707B707B7D9
S315000E200407B707B707B707B707B707B707B707B7C8
S315000E201407B707B707B707B707B707B707B707B7B8
S315000E202407B707B707B707B707B707B707B707B7A8
S315000E203407B707B707B707B707B707B707B707B798
S315000E204407B707B707B707B707B707B707B707B788
S315000E205407B707B707B707B707B707B707B707B778
S315000E206407B707B707B707B707B707B707B707B768
S315000E207407B707B707B707B707B707B707B707B758
S315000E208407B707B707B707B707B707B707B707B748
S315000E209407B707B707B707B707B707B707B707B738
S315000E20A400060010000E1C1C000E1C34000E20C070
S315000E20B4080000003F8000000000000007D107D191
S315000E20C407D107D107D107D107D107D107D107D138
S315000E20D407D107D107D107D107D107D107D107D128
S315000E20E407D107D107D107D107D107D107D107D118
S315000E20F407D107D107D107D107D107D107D107D108
S315000E210407D107D107D107D107D107D107D107D1F7
S315000E211407D107D107D107D107D107D107D107D1E7
S315000E212407D107D107D107D107D107D107D107D1D7
S315000E213407D107D107D107D107D107D107D107D1C7
S315000E214407D107D107D107D107D107D107D107D1B7
S315000E215407D107D107D107D107D107D107D107D1A7
S315000E216407D107D107D107D107D107D107D107D197
S315000E217407D107D107D107D107D107D10006001021
S315000E2184000E1C1C000E1C34000E219C08000000C0
S315000E21943F8000000000000002F802F802F802F880
S315000E21A402F802F802F802F802F802F802F802F847
S315000E21B402F802F802F802F802F802F802F802F837
S315000E21C402F802F802F802F802F802F802F802F827
S315000E21D402F802F802F802F802F802F802F802F817
S315000E21E402F802F802F802F802F802F802F802F807
S315000E21F402F802F802F802F802F802F802F802F8F7
S315000E220402F802F802F802F802F802F802F802F8E6
S315000E221402F802F802F802F802F802F802F802F8D6
S315000E222402F802F802F802F802F802F802F802F8C6
S315000E223402F802F802F802F802F802F802F802F8B6
S315000E224402F802F802F802F802F802F802F802F8A6
S315000E225402F802F802F802F800100010000E2278B6
S315000E2264000E22B8000E22F808000000388000FD89
S315000E227400000000424800004296000042C80000DA
S315000E228442FA000043160000432F000043480000A4
S315000E229443610000437A00004389800043960000A0
S315000E22A443A2800043AF000043BB800043C8000036
S315000E22B443D480004509800045160000452F0000D2
S315000E22C445480000455AC000457A00004583400043
S315000E22D445898000458FC00045960000459C400008
S315000E22E445A2800045AF000045BB800045C80000EE
S315000E22F445D480000000000000000000000000002D
S315000E230400000000000000000000000000000000B5
S315000E231400000000000000000000000000000000A5
S315000E23240000000000000000000000000000000095
S315000E23340000000000000000000000000000000085
S315000E23440000000000000000000000000000000075
S315000E23540000000000000000000000000000000065
S315000E23640000000000000000000000000000000055
S315000E23740000000000000000000000000000000045
S315000E23840000000000000000000000000000000035
S315000E23940000000000000000000000000000000025
S315000E23A40000000000000000000000000000000015
S315000E23B40000000000000000000000000000000005
S315000E23C400000000000000000000000000000000F5
S315000E23D400000000000000000000000000000000E5
S315000E23E400000000000000000000000000000000D5
S315000E23F400000000000000000000000000000000C5
S315000E240400000000000000000000000000000000B4
S315000E241400000000000000000000000000000000A4
S315000E24240000000000000000000000000000000094
S315000E24340000000000000000000000000000000084
S315000E24440000000000000000000000000000000074
S315000E24540000000000000000000000000000000064
S315000E24640000000000000000000000000000000054
S315000E24740000000000000000000000000000000044
S315000E24840000000000000000000000000000000034
S315000E24940000000000000000000000000000000024
S315000E24A40000000000000000000000000000000014
S315000E24B40000000000000000000000000000000004
S315000E24C400000000000000000000000000000000F4
S315000E24D400000000000000000000000000000000E4
S315000E24E400000000000000000000000000000000D4
S315000E24F40000000000100010000E2278000E22B814
S315000E2504000E251408000000388000FD00000000AF
S315000E251400000000000000000000000000000000A3
S315000E25240000000000000000000000000000000093
S315000E25340000000000000000000000000000000083
S315000E25440000000000000000000000000000000073
S315000E25540000000000000000000000000000000063
S315000E25640000000000000000000000000000000053
S315000E25740000000000000000000000000000000043
S315000E25840000000000000000000000000000000033
S315000E25940000000000000000000000000000000023
S315000E25A40000000000000000000000000000000013
S315000E25B40000000000000000000000000000000003
S315000E25C400000000000000000000000000000000F3
S315000E25D400000000000000000000000000000000E3
S315000E25E400000000000000000000000000000000D3
S315000E25F400000000000000000000000000000000C3
S315000E260400000000000000000000000000000000B2
S315000E261400000000000000000000000000000000A2
S315000E26240000000000000000000000000000000092
S315000E26340000000000000000000000000000000082
S315000E26440000000000000000000000000000000072
S315000E26540000000000000000000000000000000062
S315000E26640000000000000000000000000000000052
S315000E26740000000000000000000000000000000042
S315000E26840000000000000000000000000000000032
S315000E26940000000000000000000000000000000022
S315000E26A40000000000000000000000000000000012
S315000E26B40000000000000000000000000000000002
S315000E26C400000000000000000000000000000000F2
S315000E26D400000000000000000000000000000000E2
S315000E26E400000000000000000000000000000000D2
S315000E26F400000000000000000000000000000000C2
S315000E270400000000000000000000000000000000B1
S315000E271400100010000E2278000E22B8000E27308C
S315000E272408000000388000FD0000000000000000D4
S315000E27340000000000000000000000000000000081
S315000E27440000000000000000000000000000000071
S315000E27540000000000000000000000000000000061
S315000E27640000000000000000000000000000000051
S315000E27740000000000000000000000000000000041
S315000E27840000000000000000000000000000000031
S315000E27940000000000000000000000000000000021
S315000E27A40000000000000000000000000000000011
S315000E27B40000000000000000000000000000000001
S315000E27C400000000000000000000000000000000F1
S315000E27D400000000000000000000000000000000E1
S315000E27E400000000000000000000000000000000D1
S315000E27F400000000000000000000000000000000C1
S315000E280400000000000000000000000000000000B0
S315000E281400000000000000000000000000000000A0
S315000E28240000000000000000000000000000000090
S315000E28340000000000000000000000000000000080
S315000E28440000000000000000000000000000000070
S315000E28540000000000000000000000000000000060
S315000E28640000000000000000000000000000000050
S315000E28740000000000000000000000000000000040
S315000E28840000000000000000000000000000000030
S315000E28940000000000000000000000000000000020
S315000E28A40000000000000000000000000000000010
S315000E28B40000000000000000000000000000000000
S315000E28C400000000000000000000000000000000F0
S315000E28D400000000000000000000000000000000E0
S315000E28E400000000000000000000000000000000D0
S315000E28F400000000000000000000000000000000C0
S315000E290400000000000000000000000000000000AF
S315000E2914000000000000000000000000000000009F
S315000E2924000000000000000000000000001000106F
S315000E2934000E2278000E22B8000E294C0800000064
S315000E2944388000FD000000000000000000000000BA
S315000E2954000000000000000000000000000000005F
S315000E2964000000000000000000000000000000004F
S315000E2974000000000000000000000000000000003F
S315000E2984000000000000000000000000000000002F
S315000E2994000000000000000000000000000000001F
S315000E29A4000000000000000000000000000000000F
S315000E29B400000000000000000000000000000000FF
S315000E29C400000000000000000000000000000000EF
S315000E29D400000000000000000000000000000000DF
S315000E29E400000000000000000000000000000000CF
S315000E29F400000000000000000000000000000000BF
S315000E2A0400000000000000000000000000000000AE
S315000E2A14000000000000000000000000000000009E
S315000E2A24000000000000000000000000000000008E
S315000E2A34000000000000000000000000000000007E
S315000E2A44000000000000000000000000000000006E
S315000E2A54000000000000000000000000000000005E
S315000E2A64000000000000000000000000000000004E
S315000E2A74000000000000000000000000000000003E
S315000E2A84000000000000000000000000000000002E
S315000E2A94000000000000000000000000000000001E
S315000E2AA4000000000000000000000000000000000E
S315000E2AB400000000000000000000000000000000FE
S315000E2AC400000000000000000000000000000000EE
S315000E2AD400000000000000000000000000000000DE
S315000E2AE400000000000000000000000000000000CE
S315000E2AF400000000000000000000000000000000BE
S315000E2B0400000000000000000000000000000000AD
S315000E2B14000000000000000000000000000000009D
S315000E2B24000000000000000000000000000000008D
S315000E2B34000000000000000000000000000000007D
S315000E2B44000000000000000000100010000E2278A5
S315000E2B54000E22B8000E2B6808000000388000FD17
S315000E2B64000000000000000000000000000000004D
S315000E2B74000000000000000000000000000000003D
S315000E2B84000000000000000000000000000000002D
S315000E2B94000000000000000000000000000000001D
S315000E2BA4000000000000000000000000000000000D
S315000E2BB400000000000000000000000000000000FD
S315000E2BC400000000000000000000000000000000ED
S315000E2BD400000000000000000000000000000000DD
S315000E2BE400000000000000000000000000000000CD
S315000E2BF400000000000000000000000000000000BD
S315000E2C0400000000000000000000000000000000AC
S315000E2C14000000000000000000000000000000009C
S315000E2C24000000000000000000000000000000008C
S315000E2C34000000000000000000000000000000007C
S315000E2C44000000000000000000000000000000006C
S315000E2C54000000000000000000000000000000005C
S315000E2C64000000000000000000000000000000004C
S315000E2C74000000000000000000000000000000003C
S315000E2C84000000000000000000000000000000002C
S315000E2C94000000000000000000000000000000001C
S315000E2CA4000000000000000000000000000000000C
S315000E2CB400000000000000000000000000000000FC
S315000E2CC400000000000000000000000000000000EC
S315000E2CD400000000000000000000000000000000DC
S315000E2CE400000000000000000000000000000000CC
S315000E2CF400000000000000000000000000000000BC
S315000E2D0400000000000000000000000000000000AB
S315000E2D14000000000000000000000000000000009B
S315000E2D24000000000000000000000000000000008B
S315000E2D34000000000000000000000000000000007B
S315000E2D44000000000000000000000000000000006B
S315000E2D54000000000000000000000000000000005B
S315000E2D640000000000100010000E2278000E22B89B
S315000E2D74000E2D8408000000388000FD00000000BF
S315000E2D84000000000000000000000000000000002B
S315000E2D94000000000000000000000000000000001B
S315000E2DA4000000000000000000000000000000000B
S315000E2DB400000000000000000000000000000000FB
S315000E2DC400000000000000000000000000000000EB
S315000E2DD400000000000000000000000000000000DB
S315000E2DE400000000000000000000000000000000CB
S315000E2DF400000000000000000000000000000000BB
S315000E2E0400000000000000000000000000000000AA
S315000E2E14000000000000000000000000000000009A
S315000E2E24000000000000000000000000000000008A
S315000E2E34000000000000000000000000000000007A
S315000E2E44000000000000000000000000000000006A
S315000E2E54000000000000000000000000000000005A
S315000E2E64000000000000000000000000000000004A
S315000E2E74000000000000000000000000000000003A
S315000E2E84000000000000000000000000000000002A
S315000E2E94000000000000000000000000000000001A
S315000E2EA4000000000000000000000000000000000A
S315000E2EB400000000000000000000000000000000FA
S315000E2EC400000000000000000000000000000000EA
S315000E2ED400000000000000000000000000000000DA
S315000E2EE400000000000000000000000000000000CA
S315000E2EF400000000000000000000000000000000BA
S315000E2F0400000000000000000000000000000000A9
S315000E2F140000000000000000000000000000000099
S315000E2F240000000000000000000000000000000089
S315000E2F340000000000000000000000000000000079
S315000E2F440000000000000000000000000000000069
S315000E2F540000000000000000000000000000000059
S315000E2F640000000000000000000000000000000049
S315000E2F740000000000000000000000000000000039
S315000E2F8400100010000E2FA0000E2FE0000E3020B1
S315000E2F9408000000388000FD0000000042480000D2
S315000E2FA44296000042C8000042FA00004316000092
S315000E2FB4432F00004348000043610000437A00009B
S315000E2FC4438980004396000043A2800043AF00006D
S315000E2FD443BB800043C8000043D4800045098000EB
S315000E2FE445160000452F000045480000455AC0000E
S315000E2FF4457A00004583400045898000458FC00010
S315000E300445960000459C400045A2800045AF000051
S315000E301445BB800045C8000045D480000000000072
S315000E30240000000000000000000000000000000088
S315000E30340000000000000000000000000000000078
S315000E30440000000000000000000000000000000068
S315000E30540000000000000000000000000000000058
S315000E30640000000000000000000000000000000048
S315000E30740000000000000000000000000000000038
S315000E30840000000000000000000000000000000028
S315000E30940000000000000000000000000000000018
S315000E30A40000000000000000000000000000000008
S315000E30B400000000000000000000000000000000F8
S315000E30C400000000000000000000000000000000E8
S315000E30D400000000000000000000000000000000D8
S315000E30E400000000000000000000000000000000C8
S315000E30F400000000000000000000000000000000B8
S315000E310400000000000000000000000000000000A7
S315000E31140000000000000000000000000000000097
S315000E31240000000000000000000000000000000087
S315000E31340000000000000000000000000000000077
S315000E31440000000000000000000000000000000067
S315000E31540000000000000000000000000000000057
S315000E31640000000000000000000000000000000047
S315000E31740000000000000000000000000000000037
S315000E31840000000000000000000000000000000027
S315000E31940000000000000000000000000000000017
S315000E31A40000000000000000000000000000000007
S315000E31B400000000000000000000000000000000F7
S315000E31C400000000000000000000000000000000E7
S315000E31D400000000000000000000000000000000D7
S315000E31E400000000000000000000000000000000C7
S315000E31F400000000000000000000000000000000B7
S315000E320400000000000000000000000000000000A6
S315000E32140000000000000000000000000010001076
S315000E3224000E2FA0000E2FE0000E323C0800000008
S315000E3234388000FD000000000000000000000000C1
S315000E32440000000000000000000000000000000066
S315000E32540000000000000000000000000000000056
S315000E32640000000000000000000000000000000046
S315000E32740000000000000000000000000000000036
S315000E32840000000000000000000000000000000026
S315000E32940000000000000000000000000000000016
S315000E32A40000000000000000000000000000000006
S315000E32B400000000000000000000000000000000F6
S315000E32C400000000000000000000000000000000E6
S315000E32D400000000000000000000000000000000D6
S315000E32E400000000000000000000000000000000C6
S315000E32F400000000000000000000000000000000B6
S315000E330400000000000000000000000000000000A5
S315000E33140000000000000000000000000000000095
S315000E33240000000000000000000000000000000085
S315000E33340000000000000000000000000000000075
S315000E33440000000000000000000000000000000065
S315000E33540000000000000000000000000000000055
S315000E33640000000000000000000000000000000045
S315000E33740000000000000000000000000000000035
S315000E33840000000000000000000000000000000025
S315000E33940000000000000000000000000000000015
S315000E33A40000000000000000000000000000000005
S315000E33B400000000000000000000000000000000F5
S315000E33C400000000000000000000000000000000E5
S315000E33D400000000000000000000000000000000D5
S315000E33E400000000000000000000000000000000C5
S315000E33F400000000000000000000000000000000B5
S315000E340400000000000000000000000000000000A4
S315000E34140000000000000000000000000000000094
S315000E34240000000000000000000000000000000084
S315000E3434000000000000000000100010000E2FA077
S315000E3444000E2FE0000E345808000000388000FDF0
S315000E34540000000000000000000000000000000054
S315000E34640000000000000000000000000000000044
S315000E34740000000000000000000000000000000034
S315000E34840000000000000000000000000000000024
S315000E34940000000000000000000000000000000014
S315000E34A40000000000000000000000000000000004
S315000E34B400000000000000000000000000000000F4
S315000E34C400000000000000000000000000000000E4
S315000E34D400000000000000000000000000000000D4
S315000E34E400000000000000000000000000000000C4
S315000E34F400000000000000000000000000000000B4
S315000E350400000000000000000000000000000000A3
S315000E35140000000000000000000000000000000093
S315000E35240000000000000000000000000000000083
S315000E35340000000000000000000000000000000073
S315000E35440000000000000000000000000000000063
S315000E35540000000000000000000000000000000053
S315000E35640000000000000000000000000000000043
S315000E35740000000000000000000000000000000033
S315000E35840000000000000000000000000000000023
S315000E35940000000000000000000000000000000013
S315000E35A40000000000000000000000000000000003
S315000E35B400000000000000000000000000000000F3
S315000E35C400000000000000000000000000000000E3
S315000E35D400000000000000000000000000000000D3
S315000E35E400000000000000000000000000000000C3
S315000E35F400000000000000000000000000000000B3
S315000E360400000000000000000000000000000000A2
S315000E36140000000000000000000000000000000092
S315000E36240000000000000000000000000000000082
S315000E36340000000000000000000000000000000072
S315000E36440000000000000000000000000000000062
S315000E36540000000000100010000E2FA0000E2FE038
S315000E3664000E367408000000388000FD00000000CD
S315000E36740000000000000000000000000000000032
S315000E36840000000000000000000000000000000022
S315000E36940000000000000000000000000000000012
S315000E36A40000000000000000000000000000000002
S315000E36B400000000000000000000000000000000F2
S315000E36C400000000000000000000000000000000E2
S315000E36D400000000000000000000000000000000D2
S315000E36E400000000000000000000000000000000C2
S315000E36F400000000000000000000000000000000B2
S315000E370400000000000000000000000000000000A1
S315000E37140000000000000000000000000000000091
S315000E37240000000000000000000000000000000081
S315000E37340000000000000000000000000000000071
S315000E37440000000000000000000000000000000061
S315000E37540000000000000000000000000000000051
S315000E37640000000000000000000000000000000041
S315000E37740000000000000000000000000000000031
S315000E37840000000000000000000000000000000021
S315000E37940000000000000000000000000000000011
S315000E37A40000000000000000000000000000000001
S315000E37B400000000000000000000000000000000F1
S315000E37C400000000000000000000000000000000E1
S315000E37D400000000000000000000000000000000D1
S315000E37E400000000000000000000000000000000C1
S315000E37F400000000000000000000000000000000B1
S315000E380400000000000000000000000000000000A0
S315000E38140000000000000000000000000000000090
S315000E38240000000000000000000000000000000080
S315000E38340000000000000000000000000000000070
S315000E38440000000000000000000000000000000060
S315000E38540000000000000000000000000000000050
S315000E38640000000000000000000000000000000040
S315000E387400100010000E2FA0000E2FE0000E389040
S315000E388408000000388000FD000000000000000063
S315000E38940000000000000000000000000000000010
S315000E38A40000000000000000000000000000000000
S315000E38B400000000000000000000000000000000F0
S315000E38C400000000000000000000000000000000E0
S315000E38D400000000000000000000000000000000D0
S315000E38E400000000000000000000000000000000C0
S315000E38F400000000000000000000000000000000B0
S315000E3904000000000000000000000000000000009F
S315000E3914000000000000000000000000000000008F
S315000E3924000000000000000000000000000000007F
S315000E3934000000000000000000000000000000006F
S315000E3944000000000000000000000000000000005F
S315000E3954000000000000000000000000000000004F
S315000E3964000000000000000000000000000000003F
S315000E3974000000000000000000000000000000002F
S315000E3984000000000000000000000000000000001F
S315000E3994000000000000000000000000000000000F
S315000E39A400000000000000000000000000000000FF
S315000E39B400000000000000000000000000000000EF
S315000E39C400000000000000000000000000000000DF
S315000E39D400000000000000000000000000000000CF
S315000E39E400000000000000000000000000000000BF
S315000E39F400000000000000000000000000000000AF
S315000E3A04000000000000000000000000000000009E
S315000E3A14000000000000000000000000000000008E
S315000E3A24000000000000000000000000000000007E
S315000E3A34000000000000000000000000000000006E
S315000E3A44000000000000000000000000000000005E
S315000E3A54000000000000000000000000000000004E
S315000E3A64000000000000000000000000000000003E
S315000E3A74000000000000000000000000000000002E
S315000E3A8400000000000000000000000000100010FE
S315000E3A94000E2FA0000E2FE0000E3AAC0800000018
S315000E3AA4388000FD00000000000000000000000049
S315000E3AB400000000000000000000000000000000EE
S315000E3AC400000000000000000000000000000000DE
S315000E3AD400000000000000000000000000000000CE
S315000E3AE400000000000000000000000000000000BE
S315000E3AF400000000000000000000000000000000AE
S315000E3B04000000000000000000000000000000009D
S315000E3B14000000000000000000000000000000008D
S315000E3B24000000000000000000000000000000007D
S315000E3B34000000000000000000000000000000006D
S315000E3B44000000000000000000000000000000005D
S315000E3B54000000000000000000000000000000004D
S315000E3B64000000000000000000000000000000003D
S315000E3B74000000000000000000000000000000002D
S315000E3B84000000000000000000000000000000001D
S315000E3B94000000000000000000000000000000000D
S315000E3BA400000000000000000000000000000000FD
S315000E3BB400000000000000000000000000000000ED
S315000E3BC400000000000000000000000000000000DD
S315000E3BD400000000000000000000000000000000CD
S315000E3BE400000000000000000000000000000000BD
S315000E3BF400000000000000000000000000000000AD
S315000E3C04000000000000000000000000000000009C
S315000E3C14000000000000000000000000000000008C
S315000E3C24000000000000000000000000000000007C
S315000E3C34000000000000000000000000000000006C
S315000E3C44000000000000000000000000000000005C
S315000E3C54000000000000000000000000000000004C
S315000E3C64000000000000000000000000000000003C
S315000E3C74000000000000000000000000000000002C
S315000E3C84000000000000000000000000000000001C
S315000E3C94000000000000000000000000000000000C
S315000E3CA4000000000000000000100010000E3CC8CA
S315000E3CB4000E3D08000E3D4808000000388000FD49
S315000E3CC400000000424800004296000042C8000070
S315000E3CD442FA000043160000432F0000434800003A
S315000E3CE443610000437A0000438980004396000036
S315000E3CF443A2800043AF000043BB800043C80000CC
S315000E3D0443D480004509800045160000452F000067
S315000E3D1445480000455AC000457A000045834000D8
S315000E3D2445898000458FC00045960000459C40009D
S315000E3D3445A2800045AF000045BB800045C8000083
S315000E3D4445D4800002BD02BD02BD02BD02BD02BD48
S315000E3D5402BD02BD02BD02BD02BD02BD02BD02BD53
S315000E3D6402BD02BD02BD02BD02BD02BD02BD02BD43
S315000E3D7402BD02BD02BD02BD02BD02BD02BD02BD33
S315000E3D8402BD02BD02BD02BD02BD02BD02BD02BD23
S315000E3D9402BD02BD02BD02BD02BD02BD02BD02BD13
S315000E3DA402BD02BD02BD02BD02BD02BD02BD02BD03
S315000E3DB402BD02BD02BD02BD02BD02BD02BD02BDF3
S315000E3DC402BD02BD02BD02BD02BD02BD02BD02BDE3
S315000E3DD402BD02BD02BD02BD02BD02BD02BD02BDD3
S315000E3DE402BD02BD02BD02BD02BD02BD02BD02BDC3
S315000E3DF402BD02BD02BD02BD02BD02BD02BD02BDB3
S315000E3E0402BD02BD02BD02BD02BD02BD02BD02BDA2
S315000E3E1402BD02BD02BD02BD02BD02BD02BD02BD92
S315000E3E2402BD02BD02BD02BD02BD02BD02BD02BD82
S315000E3E3402BD02BD02BD02BD02BD02BD02BD02BD72
S315000E3E4402BD02BD02BD02BD02BD02BD02BD02BD62
S315000E3E5402BD02BD02BD02BD02BD02BD02BD02BD52
S315000E3E6402BD02BD02BD02BD02BD02BD02BD02BD42
S315000E3E7402BD02BD02BD02BD02BD02BD02BD02BD32
S315000E3E8402BD02BD02BD02BD02BD02BD02BD02BD22
S315000E3E9402BD02BD02BD02BD02BD02BD02BD02BD12
S315000E3EA402BD02BD02BD02BD02BD02BD02BD02BD02
S315000E3EB402BD02BD02BD02BD02BD02BD02BD02BDF2
S315000E3EC402BD02BD02BD02BD02BD02BD02BD02BDE2
S315000E3ED402BD02BD02BD02BD02BD02BD02BD02BDD2
S315000E3EE402BD02BD02BD02BD02BD02BD02BD02BDC2
S315000E3EF402BD02BD02BD02BD02BD02BD02BD02BDB2
S315000E3F0402BD02BD02BD02BD02BD02BD02BD02BDA1
S315000E3F1402BD02BD02BD02BD02BD02BD02BD02BD91
S315000E3F2402BD02BD02BD02BD02BD02BD02BD02BD81
S315000E3F3402BD02BD02BD02BD02BD02BD02BD02BD71
S315000E3F4402BD02BD00100010000E3CC8000E3D0856
S315000E3F54000E3F6408000000388000FD00000000DB
S315000E3F6402BD02BD02BD02BD02BD02BD02BD02BD41
S315000E3F7402BD02BD02BD02BD02BD02BD02BD02BD31
S315000E3F8402BD02BD02BD02BD02BD02BD02BD02BD21
S315000E3F9402BD02BD02BD02BD02BD02BD02BD02BD11
S315000E3FA402BD02BD02BD02BD02BD02BD02BD02BD01
S315000E3FB402BD02BD02BD02BD02BD02BD02BD02BDF1
S315000E3FC402BD02BD02BD02BD02BD02BD02BD02BDE1
S315000E3FD402BD02BD02BD02BD02BD02BD02BD02BDD1
S315000E3FE402BD02BD02BD02BD02BD02BD02BD02BDC1
S315000E3FF402BD02BD02BD02BD02BD02BD02BD02BDB1
S315000E400402BD02BD02BD02BD02BD02BD02BD02BDA0
S315000E401402BD02BD02BD02BD02BD02BD02BD02BD90
S315000E402402BD02BD02BD02BD02BD02BD02BD02BD80
S315000E403402BD02BD02BD02BD02BD02BD02BD02BD70
S315000E404402BD02BD02BD02BD02BD02BD02BD02BD60
S315000E405402BD02BD02BD02BD02BD02BD02BD02BD50
S315000E406402BD02BD02BD02BD02BD02BD02BD02BD40
S315000E407402BD02BD02BD02BD02BD02BD02BD02BD30
S315000E408402BD02BD02BD02BD02BD02BD02BD02BD20
S315000E409402BD02BD02BD02BD02BD02BD02BD02BD10
S315000E40A402BD02BD02BD02BD02BD02BD02BD02BD00
S315000E40B402BD02BD02BD02BD02BD02BD02BD02BDF0
S315000E40C402BD02BD02BD02BD02BD02BD02BD02BDE0
S315000E40D402BD02BD02BD02BD02BD02BD02BD02BDD0
S315000E40E402BD02BD02BD02BD02BD02BD02BD02BDC0
S315000E40F402BD02BD02BD02BD02BD02BD02BD02BDB0
S315000E410402BD02BD02BD02BD02BD02BD02BD02BD9F
S315000E411402BD02BD02BD02BD02BD02BD02BD02BD8F
S315000E412402BD02BD02BD02BD02BD02BD02BD02BD7F
S315000E413402BD02BD02BD02BD02BD02BD02BD02BD6F
S315000E414402BD02BD02BD02BD02BD02BD02BD02BD5F
S315000E415402BD02BD02BD02BD02BD02BD02BD02BD4F
S315000E416400100010000E3CC8000E3D08000E4180E3
S315000E417408000000388000FD0000000002BD02BDEC
S315000E418402BD02BD02BD02BD02BD02BD02BD02BD1F
S315000E419402BD02BD02BD02BD02BD02BD02BD02BD0F
S315000E41A402BD02BD02BD02BD02BD02BD02BD02BDFF
S315000E41B402BD02BD02BD02BD02BD02BD02BD02BDEF
S315000E41C402BD02BD02BD02BD02BD02BD02BD02BDDF
S315000E41D402BD02BD02BD02BD02BD02BD02BD02BDCF
S315000E41E402BD02BD02BD02BD02BD02BD02BD02BDBF
S315000E41F402BD02BD02BD02BD02BD02BD02BD02BDAF
S315000E420402BD02BD02BD02BD02BD02BD02BD02BD9E
S315000E421402BD02BD02BD02BD02BD02BD02BD02BD8E
S315000E422402BD02BD02BD02BD02BD02BD02BD02BD7E
S315000E423402BD02BD02BD02BD02BD02BD02BD02BD6E
S315000E424402BD02BD02BD02BD02BD02BD02BD02BD5E
S315000E425402BD02BD02BD02BD02BD02BD02BD02BD4E
S315000E426402BD02BD02BD02BD02BD02BD02BD02BD3E
S315000E427402BD02BD02BD02BD02BD02BD02BD02BD2E
S315000E428402BD02BD02BD02BD02BD02BD02BD02BD1E
S315000E429402BD02BD02BD02BD02BD02BD02BD02BD0E
S315000E42A402BD02BD02BD02BD02BD02BD02BD02BDFE
S315000E42B402BD02BD02BD02BD02BD02BD02BD02BDEE
S315000E42C402BD02BD02BD02BD02BD02BD02BD02BDDE
S315000E42D402BD02BD02BD02BD02BD02BD02BD02BDCE
S315000E42E402BD02BD02BD02BD02BD02BD02BD02BDBE
S315000E42F402BD02BD02BD02BD02BD02BD02BD02BDAE
S315000E430402BD02BD02BD02BD02BD02BD02BD02BD9D
S315000E431402BD02BD02BD02BD02BD02BD02BD02BD8D
S315000E432402BD02BD02BD02BD02BD02BD02BD02BD7D
S315000E433402BD02BD02BD02BD02BD02BD02BD02BD6D
S315000E434402BD02BD02BD02BD02BD02BD02BD02BD5D
S315000E435402BD02BD02BD02BD02BD02BD02BD02BD4D
S315000E436402BD02BD02BD02BD02BD02BD02BD02BD3D
S315000E437402BD02BD02BD02BD02BD02BD001000108B
S315000E4384000E3CC8000E3D08000E439C08000000BB
S315000E4394388000FD0000000002BD02BD02BD02BD54
S315000E43A402BD02BD02BD02BD02BD02BD02BD02BDFD
S315000E43B402BD02BD02BD02BD02BD02BD02BD02BDED
S315000E43C402BD02BD02BD02BD02BD02BD02BD02BDDD
S315000E43D402BD02BD02BD02BD02BD02BD02BD02BDCD
S315000E43E402BD02BD02BD02BD02BD02BD02BD02BDBD
S315000E43F402BD02BD02BD02BD02BD02BD02BD02BDAD
S315000E440402BD02BD02BD02BD02BD02BD02BD02BD9C
S315000E441402BD02BD02BD02BD02BD02BD02BD02BD8C
S315000E442402BD02BD02BD02BD02BD02BD02BD02BD7C
S315000E443402BD02BD02BD02BD02BD02BD02BD02BD6C
S315000E444402BD02BD02BD02BD02BD02BD02BD02BD5C
S315000E445402BD02BD02BD02BD02BD02BD02BD02BD4C
S315000E446402BD02BD02BD02BD02BD02BD02BD02BD3C
S315000E447402BD02BD02BD02BD02BD02BD02BD02BD2C
S315000E448402BD02BD02BD02BD02BD02BD02BD02BD1C
S315000E449402BD02BD02BD02BD02BD02BD02BD02BD0C
S315000E44A402BD02BD02BD02BD02BD02BD02BD02BDFC
S315000E44B402BD02BD02BD02BD02BD02BD02BD02BDEC
S315000E44C402BD02BD02BD02BD02BD02BD02BD02BDDC
S315000E44D402BD02BD02BD02BD02BD02BD02BD02BDCC
S315000E44E402BD02BD02BD02BD02BD02BD02BD02BDBC
S315000E44F402BD02BD02BD02BD02BD02BD02BD02BDAC
S315000E450402BD02BD02BD02BD02BD02BD02BD02BD9B
S315000E451402BD02BD02BD02BD02BD02BD02BD02BD8B
S315000E452402BD02BD02BD02BD02BD02BD02BD02BD7B
S315000E453402BD02BD02BD02BD02BD02BD02BD02BD6B
S315000E454402BD02BD02BD02BD02BD02BD02BD02BD5B
S315000E455402BD02BD02BD02BD02BD02BD02BD02BD4B
S315000E456402BD02BD02BD02BD02BD02BD02BD02BD3B
S315000E457402BD02BD02BD02BD02BD02BD02BD02BD2B
S315000E458402BD02BD02BD02BD02BD02BD02BD02BD1B
S315000E459402BD02BD02BD02BD00100010000E3CC8D5
S315000E45A4000E3D08000E45B808000000388000FDD8
S315000E45B40000000002BD02BD02BD02BD02BD02BD69
S315000E45C402BD02BD02BD02BD02BD02BD02BD02BDDB
S315000E45D402BD02BD02BD02BD02BD02BD02BD02BDCB
S315000E45E402BD02BD02BD02BD02BD02BD02BD02BDBB
S315000E45F402BD02BD02BD02BD02BD02BD02BD02BDAB
S315000E460402BD02BD02BD02BD02BD02BD02BD02BD9A
S315000E461402BD02BD02BD02BD02BD02BD02BD02BD8A
S315000E462402BD02BD02BD02BD02BD02BD02BD02BD7A
S315000E463402BD02BD02BD02BD02BD02BD02BD02BD6A
S315000E464402BD02BD02BD02BD02BD02BD02BD02BD5A
S315000E465402BD02BD02BD02BD02BD02BD02BD02BD4A
S315000E466402BD02BD02BD02BD02BD02BD02BD02BD3A
S315000E467402BD02BD02BD02BD02BD02BD02BD02BD2A
S315000E468402BD02BD02BD02BD02BD02BD02BD02BD1A
S315000E469402BD02BD02BD02BD02BD02BD02BD02BD0A
S315000E46A402BD02BD02BD02BD02BD02BD02BD02BDFA
S315000E46B402BD02BD02BD02BD02BD02BD02BD02BDEA
S315000E46C402BD02BD02BD02BD02BD02BD02BD02BDDA
S315000E46D402BD02BD02BD02BD02BD02BD02BD02BDCA
S315000E46E402BD02BD02BD02BD02BD02BD02BD02BDBA
S315000E46F402BD02BD02BD02BD02BD02BD02BD02BDAA
S315000E470402BD02BD02BD02BD02BD02BD02BD02BD99
S315000E471402BD02BD02BD02BD02BD02BD02BD02BD89
S315000E472402BD02BD02BD02BD02BD02BD02BD02BD79
S315000E473402BD02BD02BD02BD02BD02BD02BD02BD69
S315000E474402BD02BD02BD02BD02BD02BD02BD02BD59
S315000E475402BD02BD02BD02BD02BD02BD02BD02BD49
S315000E476402BD02BD02BD02BD02BD02BD02BD02BD39
S315000E477402BD02BD02BD02BD02BD02BD02BD02BD29
S315000E478402BD02BD02BD02BD02BD02BD02BD02BD19
S315000E479402BD02BD02BD02BD02BD02BD02BD02BD09
S315000E47A402BD02BD02BD02BD02BD02BD02BD02BDF9
S315000E47B402BD02BD00100010000E3CC8000E3D08DE
S315000E47C4000E47D408000000388000FD00000000EB
S315000E47D402BD02BD02BD02BD02BD02BD02BD02BDC9
S315000E47E402BD02BD02BD02BD02BD02BD02BD02BDB9
S315000E47F402BD02BD02BD02BD02BD02BD02BD02BDA9
S315000E480402BD02BD02BD02BD02BD02BD02BD02BD98
S315000E481402BD02BD02BD02BD02BD02BD02BD02BD88
S315000E482402BD02BD02BD02BD02BD02BD02BD02BD78
S315000E483402BD02BD02BD02BD02BD02BD02BD02BD68
S315000E484402BD02BD02BD02BD02BD02BD02BD02BD58
S315000E485402BD02BD02BD02BD02BD02BD02BD02BD48
S315000E486402BD02BD02BD02BD02BD02BD02BD02BD38
S315000E487402BD02BD02BD02BD02BD02BD02BD02BD28
S315000E488402BD02BD02BD02BD02BD02BD02BD02BD18
S315000E489402BD02BD02BD02BD02BD02BD02BD02BD08
S315000E48A402BD02BD02BD02BD02BD02BD02BD02BDF8
S315000E48B402BD02BD02BD02BD02BD02BD02BD02BDE8
S315000E48C402BD02BD02BD02BD02BD02BD02BD02BDD8
S315000E48D402BD02BD02BD02BD02BD02BD02BD02BDC8
S315000E48E402BD02BD02BD02BD02BD02BD02BD02BDB8
S315000E48F402BD02BD02BD02BD02BD02BD02BD02BDA8
S315000E490402BD02BD02BD02BD02BD02BD02BD02BD97
S315000E491402BD02BD02BD02BD02BD02BD02BD02BD87
S315000E492402BD02BD02BD02BD02BD02BD02BD02BD77
S315000E493402BD02BD02BD02BD02BD02BD02BD02BD67
S315000E494402BD02BD02BD02BD02BD02BD02BD02BD57
S315000E495402BD02BD02BD02BD02BD02BD02BD02BD47
S315000E496402BD02BD02BD02BD02BD02BD02BD02BD37
S315000E497402BD02BD02BD02BD02BD02BD02BD02BD27
S315000E498402BD02BD02BD02BD02BD02BD02BD02BD17
S315000E499402BD02BD02BD02BD02BD02BD02BD02BD07
S315000E49A402BD02BD02BD02BD02BD02BD02BD02BDF7
S315000E49B402BD02BD02BD02BD02BD02BD02BD02BDE7
S315000E49C402BD02BD02BD02BD02BD02BD02BD02BDD7
S315000E49D4000000000000000001000000438893332D
S315000E49E43B7DB23F401D70A4000E4F44000E4F4453
S315000E49F4000E4F44000E53E0000E53E0000E53E03B
S315000E4A0442C80000434800004396000043C8000015
S315000E4A1443FA000044160000442F000044480000E8
S315000E4A2444610000447A00004489800044960000E4
S315000E4A3444A2800044AF000044BB800044C800007A
S315000E4A4444D4800044E1000044ED800044FA0000A2
S315000E4A544503400045098000450FC0004516000079
S315000E4A6443FA0000444800004496000044C800007F
S315000E4A7444FA000045160000452F00004548000084
S315000E4A8445610000457A0000458340004589800053
S315000E4A94458FC00045960000459C400045A2800007
S315000E4AA445A8C00045AF000045B5400045BB800093
S315000E4AB445C8000045D4800045E1000045ED800060
S315000E4AC41BEE1D1926E6286F29A92A2A2ABF2B5161
S315000E4AD42BA92BEA2C2B2C772CC32D0F2D5B2DA754
S315000E4AE42DF32E3F2E8B2ED72F232F6F2FBB300752
S315000E4AF41CE61DDE25DE2794290329DC2ACC2B444D
S315000E4B042BB62BF72C382C842CD02D1C2D682DB4BB
S315000E4B142E002E4C2E982EE42F302F7C2FC83014B8
S315000E4B241F9120FF25BA271228F629DC2A3D2ACF03
S315000E4B342BC72C082C522C9E2CEA2D362D822DCECC
S315000E4B442E1A2E662EB22EFE2F4A2F962FE2302EB8
S315000E4B542108225C25BB2711290129F62A652AF686
S315000E4B642BDD2C252C792CD22D2B2D842DDD2E36BA
S315000E4B742E8F2EE82F412F9A2FF3304C30A530FE70
S315000E4B8421B322E025BB273A29032A102AA52B1D79
S315000E4B942C112C6B2CD22D3A2DA22E0A2E722EDA15
S315000E4BA42F422FAA3012307A30E2314A31B2321AFB
S315000E4BB4222D234025CC278929102A2B2AF32BB202
S315000E4BC42CCC2D942E582F1A2FDC309E3160322287
S315000E4BD432E433A63468352A35EC36AE37703832BD
S315000E4BE4229623A8264127F029292A602B902CD316
S315000E4BF42E1D3023312431A6322832AA332C33AE5D
S315000E4C04343034B2353435B6363836BA373C37BE28
S315000E4C142371247626DA287D299D2AEA2C862E5897
S315000E4C24306432B7337833B833F83438347834B82A
S315000E4C3434F83538357835B835F83638367836B8F2
S315000E4C4424A7259427F929F22BB72DC4302231B186
S315000E4C5432F333EB346234BD3518357335CE36291B
S315000E4C64368436DF373A379537F0384B38A639015E
S315000E4C742568265D28B62AE22CD92EDF3097320017
S315000E4C84332733F9346234BD3518357335CE3629A8
S315000E4C94368436DF373A379537F0384B38A639012E
S315000E4CA425422631289C2AC92CB12EC0305131CD2D
S315000E4CB432D0338F33F9343A347B34BC34FD353E3B
S315000E4CC4357F35C036013642368336C43705374608
S315000E4CD425102608284C2A842C5F2E542FE5313FA6
S315000E4CE4324B32F7332B3353337B33A333CB33F37A
S315000E4CF4341B3443346B349334BB34E3350B3533C2
S315000E4D0424D425C427FE2A252C012DDC2F533093BB
S315000E4D143185320F3236322A321E3212320631FAC9
S315000E4D2431EE31E231D631CA31BE31B231A6319AC3
S315000E4D34249E257927A829BA2B952D562EB42FBC39
S315000E4D44307E30E530F330A63059300C2FBF2F723B
S315000E4D542F252ED82E8B2E3E2DF12DA42D572D0A12
S315000E4D64245C2538274D294C2B0E2C9C2DD52EA094
S315000E4D742F3A2F622F302EAF2E2E2DAD2D2C2CAB7F
S315000E4D842C2A2BA92B282AA72A2629A5292428A387
S315000E4D94241A24F826F428D42A652BCF2CD52D6E66
S315000E4DA42DBA2D9F2D2C2CAB2C2A2BA92B282AA7BA
S315000E4DB42A2629A5292428A3282227A12720269F87
S315000E4DC423CE249F26802848299D2AD62B8D2BE870
S315000E4DD42BDB2B8F2B1B2A9A2A19299829172896EF
S315000E4DE4281527942713269226112590250F248EEF
S315000E4DF423762452260D27B028DD29BC2A3E2A41C5
S315000E4E042A0029A3292228A2282227A2272226A25B
S315000E4E14262225A2252224A2242223A2232222A24A
S315000E4E24231E2405259A2718281D28A228EF289A1A
S315000E4E34282527B7272926AA262B25AC252D24AEC9
S315000E4E44242F23B0233122B2223321B4213520B6A6
S315000E4E5422C623B825272680275D278827A026F372
S315000E4E64264A25CB253024B2243423B6233822BA37
S315000E4E74223C21BE214020C220441FC61F481ECA02
S315000E4E84226E236B24B425E8269D266E2651254CC8
S315000E4E94246F23DF233722BA223D21C0214320C6A5
S315000E4EA420491FCC1F4F1ED21E551DD81D5B1CDE5E
S315000E4EB42216231E2441255025DD2554250223A51D
S315000E4EC4229421F3213E20C220461FCA1F4E1ED213
S315000E4ED41E561DDA1D5E1CE21C661BEA1B6E1AF2BA
S315000E4EE421BE22D123CE24B8251D243A23B321FE76
S315000E4EF420B920071F451ECA1E4F1DD41D591CDE80
S315000E4F041C631BE81B6D1AF21A7719FC1981190614
S315000E4F1421662284235B2420245D232022642057C9
S315000E4F241EDE1E1B1D4C1CD21C581BDE1B641AEAED
S315000E4F341A7019F6197C19021888180E1794171A6E
S315000E4F4400180018000E4A04000E4A64000E4AC4E5
S315000E4F540800000038400000000000001BEE1D197A
S315000E4F6426E6286F29A92A2A2ABF2B512BA92BEA12
S315000E4F742C2B2C772CC32D0F2D5B2DA72DF32E3F0B
S315000E4F842E8B2ED72F232F6F2FBB30071CE61DDE3D
S315000E4F9425DE2794290329DC2ACC2B442BB62BF7A2
S315000E4FA42C382C842CD02D1C2D682DB42E002E4C72
S315000E4FB42E982EE42F302F7C2FC830141F9120FFED
S315000E4FC425BA271228F629DC2A3D2ACF2BC72C0808
S315000E4FD42C522C9E2CEA2D362D822DCE2E1A2E6672
S315000E4FE42EB22EFE2F4A2F962FE2302E2108225C49
S315000E4FF425BB2711290129F62A652AF62BDD2C2530
S315000E50042C792CD22D2B2D842DDD2E362E8F2EE89B
S315000E50142F412F9A2FF3304C30A530FE21B322E0C8
S315000E502425BB273A29032A102AA52B1D2C112C6BD6
S315000E50342CD22D3A2DA22E0A2E722EDA2F422FAAFA
S315000E50443012307A30E2314A31B2321A222D2340EE
S315000E505425CC278929102A2B2AF32BB22CCC2D9456
S315000E50642E582F1A2FDC309E3160322232E433A6AC
S315000E50743468352A35EC36AE37703832229623A884
S315000E5084264127F029292A602B902CD32E1D302356
S315000E5094312431A6322832AA332C33AE343034B20C
S315000E50A4353435B6363836BA373C37BE23712476A0
S315000E50B426DA287D299D2AEA2C862E58306432B7A4
S315000E50C4337833B833F83438347834B834F835386A
S315000E50D4357835B835F83638367836B824A7259463
S315000E50E427F929F22BB72DC4302231B132F333EB23
S315000E50F4346234BD3518357335CE3629368436DFEB
S315000E5104373A379537F0384B38A639012568265D78
S315000E511428B62AE22CD92EDF30973200332733F9FC
S315000E5124346234BD3518357335CE3629368436DFBA
S315000E5134373A379537F0384B38A63901254226319A
S315000E5144289C2AC92CB12EC0305131CD32D0338F82
S315000E515433F9343A347B34BC34FD353E357F35C0B1
S315000E516436013642368336C43705374625102608A9
S315000E5174284C2A842C5F2E542FE5313F324B32F7BE
S315000E5184332B3353337B33A333CB33F3341B3443B5
S315000E5194346B349334BB34E3350B353324D425C402
S315000E51A427FE2A252C012DDC2F5330933185320F01
S315000E51B43236322A321E3212320631FA31EE31E2EA
S315000E51C431D631CA31BE31B231A6319A249E2579F1
S315000E51D427A829BA2B952D562EB42FBC307E30E532
S315000E51E430F330A63059300C2FBF2F722F252ED800
S315000E51F42E8B2E3E2DF12DA42D572D0A245C2538EB
S315000E5204274D294C2B0E2C9C2DD52EA02F3A2F62D2
S315000E52142F302EAF2E2E2DAD2D2C2CAB2C2A2BA9AA
S315000E52242B282AA72A2629A5292428A3241A24F8B2
S315000E523426F428D42A652BCF2CD52D6E2DBA2D9F68
S315000E52442D2C2CAB2C2A2BA92B282AA72A2629A5AA
S315000E5254292428A3282227A12720269F23CE249F4C
S315000E526426802848299D2AD62B8D2BE82BDB2B8FBF
S315000E52742B1B2A9A2A192998291728962815279412
S315000E52842713269226112590250F248E2376245233
S315000E5294260D27B028DD29BC2A3E2A412A0029A339
S315000E52A4292228A2282227A2272226A2262225A29E
S315000E52B4252224A2242223A2232222A2231E24054B
S315000E52C4259A2718281D28A228EF289A282527B7B5
S315000E52D4272926AA262B25AC252D24AE242F23B02A
S315000E52E4233122B2223321B4213520B622C623B865
S315000E52F425272680275D278827A026F3264A25CB31
S315000E5304253024B2243423B6233822BA223C21BEB5
S315000E5314214020C220441FC61F481ECA226E236B7C
S315000E532424B425E8269D266E2651254C246F23DFAC
S315000E5334233722BA223D21C0214320C620491FCC41
S315000E53441F4F1ED21E551DD81D5B1CDE2216231E94
S315000E53542441255025DD2554250223A5229421F327
S315000E5364213E20C220461FCA1F4E1ED21E561DDACD
S315000E53741D5E1CE21C661BEA1B6E1AF221BE22D1AE
S315000E538423CE24B8251D243A23B321FE20B92007A3
S315000E53941F451ECA1E4F1DD41D591CDE1C631BE859
S315000E53A41B6D1AF21A7719FC1981190621662284C5
S315000E53B4235B2420245D2320226420571EDE1E1B1D
S315000E53C41D4C1CD21C581BDE1B641AEA1A7019F6E5
S315000E53D4197C19021888180E1794171A0018001833
S315000E53E4000E4A04000E4A64000E4F6008000000C8
S315000E53F438400000000000000000000043A68000B4
S315000E540444268000447A000044A6A00044D04000FE
S315000E541444FA000043E8800044034000441240006E
S315000E54244421400044304000443F4000444E400076
S315000E54344000400040004000400040004000400054
S315000E54444000400040004000400040004000400044
S315000E54544000400040004000400040004000400034
S315000E54644000400040004000400040004000400024
S315000E54744000400040004000400040004000400014
S315000E54844000400040004000400040004000400004
S315000E54944000000000070007000E53FC000E5418CF
S315000E54A4000E543408000000388000FD0000000091
S315000E54B443E8800044034000441240004421400067
S315000E54C444304000443F4000444E4000445D40009A
S315000E54D4446C4000447B40000000000043FA000088
S315000E54E4447A0000449C400044BB800044FA000009
S315000E54F4451C4000453B8000455AC000457A0000D5
S315000E55040000003296FAFAFAFAFA0000003296FA17
S315000E5514FAFAFAFA0000003296FAFAFAFAFA0000E1
S315000E5524003296FAFAFAFAFA0000003296FAFAFA03
S315000E5534FAFA0000003296FAFAFAFAFA0000003283
S315000E554496FAFAFAFAFA0000003296FAFAFAFAFA21
S315000E55540000003296FAFAFAFAFA0000003296FAC7
S315000E5564FAFAFAFA000A000A000E54B4000E54DCD3
S315000E5574000E5504040000003B80808100000000EC
S315000E55840100000045E100004248000042480000C8
S315000E5594457A000042200000455AC00040A0000093
S315000E55A4457A000042480000010000000000000099
S315000E55B44068B439401800003FE168733FAC49BAFD
S315000E55C43F7893753F418937427000004270000060
S30D000E55D4459C400041F0000069
S315000E55DC020000000400000001000000080000009C
S315000E55EC0400000002000000100000001000000075
S315000E55FC080000000300000001000000100000006F
S315000E560C010000001800000001000000020000005E
S315000E561C42F000003F0000002000000002000000D7
S315000E562CBDCCCCCDC00666663FC000003FC00000A8
S30D000E563C41C8000042B4000053
S315000E5644000000003DCCCCCD3E4CCCCD3E99999A73
S315000E56543ECCCCCD3F0000003F19999A3F333333ED
S315000E56643F4CCCCD3F6666663F800000199A18D52E
S315000E56741810174C168715C214FE1439137512B06A
S315000E568411EB0000000B0800000E5644000E567077
S315000E56943920009F000000000000000000000000FA
S315000E56A4010000003EB333333F800000000E5A70F3
S315000E56B4000E5F28000E63E0000E5CCC000E6184C3
S315000E56C4000E663C00000000400000004080000012
S315000E56D440C0000041000000452F0000454A8000EE
S315000E56E445610000457A0000458980004596000014
S315000E56F445A2800045AF000045BB800045C80000AA
S315000E570445D4800045E100000000000000020101BE
S315000E57140000050402010008060402000A07050239
S315000E5724000D0A060300100C080400130E090400EB
S315000E573416100A05001A130C06001D150D06002177
S315000E5744170F070000000000000000000000000014
S315000E57540005000C000E56C8000E56DC000E570C43
S315000E5764040000003C000000000000003E4CCCCDBE
S315000E57743ECCCCCD3F19999A3F4CCCCD3F80000000
S315000E57843F99999A3FB333333FCCCCCD3FE6666609
S315000E579440000000400CCCCD4019999A402666660E
S315000E57A44033333340400000404CCCCD405333336A
S315000E57B44059999A4060000040666666406CCCCDAE
S315000E57C4407333334079999A4080000043FA0000BF
S315000E57D4444800004496000044C8000044FA000001
S315000E57E445160000452F000045480000456100009F
S315000E57F4457A00004583400045898000458FC000E8
S315000E580445960000459C400045A2800045A8C00070
S315000E581445AF000045B5400045BB800045C80000B5
S315000E582445D4800045E1000045ED800000000000EF
S315000E58340000000000000000000000000000000050
S315000E58440000000000000000000000000000000040
S315000E58540000000000000000000000000000000030
S315000E58640000000000000000000000000000000020
S315000E5A6400000000000000000000000000180018EE
S315000E5A74000E5770000E57D0000E5830040000006A
S315000E5A843C000000000000000000000000000000C2
S315000E5A9400000000000000000000000000000000EE
S315000E5AA400000000000000000000000000000000DE
S315000E5AB400000000000000000000000000000000CE
S315000E5AC400000000000000000000000000000000BE
S315000E5CC4000000000000000000180018000E5770B7
S315000E5CD4000E57D0000E5A8C040000003C00000043
S315000E5CE4000000000000000000000000000000009C
S315000E5CF4000000000000000000000000000000008C
S315000E5D04000000000000000000000000000000007B
S315000E5D14000000000000000000000000000000006B
S315000E5F240000000000180018000E5770000E57D01F
S315000E5F34000E5CE8040000003C00000000000000B7
S315000E5F440000000000000000000000000000000039
S315000E5F540000000000000000000000000000000029
S315000E5F640000000000000000000000000000000019
S315000E5F740000000000000000000000000000000009
S315000E618400180018000E5770000E57D0000E5F440C
S315000E6194040000003C0000000000000000000000A7
S315000E61A400000000000000000000000000000000D7
S315000E61B400000000000000000000000000000000C7
S315000E61C400000000000000000000000000000000B7
S315000E61D400000000000000000000000000000000A7
S315000E63D40000000000000000000000000018001875
S315000E63E4000E5770000E57D0000E61A00400000078
S315000E63F43C00000000000000000000000000000049
S315000E64040000000000000000000000000000000074
S315000E64140000000000000000000000000000000064
S315000E64240000000000000000000000000000000054
S315000E64340000000000000000000000000000000044
S315000E6634000000000000000000180018000E57703D
S315000E6644000E57D0000E63FC040000003C00000050
S315000E66540000000000000000000000000000000022
S30D000E666400000000000000001A
S315000E666C00100400000E6AC8000E6B483EB4000003
S315000E667CC234000000100400000E6B08000E6B589E
S30D000E668C3EB40000C23400000A
S315000E669400000000453B800042AA000000000000F6
S315000E66A400000000000000000000000000000000D2
S315000E66B400000000000E15A4000E17B4000E196C8F
S315000E66C4000E16D8000E1890000E1A48000E1C0066
S315000E66D4000E1E10000E1FC8000E1D34000E1EECFA
S315000E66E4000E20A4000E225C000E2714000E2B4C66
S315000E66F4000E24F8000E2930000E2D68000E2F848D
S315000E6704000E343C000E3874000E3220000E36583D
S315000E6714000E3A90000E3CAC000E4164000E459CF1
S311000E6724000E3F48000E4380000E47B8E2
S315000E67300000000100000002000000040000000836
S315000E67400000001000000020000000400000008045
S315000E67500000010000000200000004000000080016
S315000E67600000100000002000000040000000800025
S315000E677000010000000200000004000000080000F6
S315000E67800010000000200000003FF83000800000DE
S315000E6790002D0000000000EC000EB74800080013A4
S315000E67A003010000000000000000000000000014BD
S315000E67B000000000000000000000000000000015B0
S315000E67C0000000000000000000000000000000169F
S315000E67D0000000000000000000000000000000178E
S315000E67E0000000000000000000000000000000187D
S315000E67F0000000000000000000000000000000196C
S315000E68000000000000000000000000000000001A5A
S315000E68100000000000000640000000000008001BFB
S315000E68200000006400000641000000000008001C85
S315000E68300000006400000000000000000000001DC3
S315000E68400000000000000000000000000000001E16
S315000E685000000000FFFF6720FFFFB544FFFF684CF6
S315000E6860FFFF5CA4FFFFB529FFFFB523FFFFB53C75
S315000E68700000000000000000000000000000000004
S315000E688000000000000000000000000000000000F4
S315000E689000000000040404040101040000000000CE
S315000E68A000000000040401010101040101010101BF
S315000E68B00101010108080909090909000000000083
S315000E68C000000000000400010203040000000000A6
S315000E68D000000000000000000000000000000000A4
S315000E68E00000000000000000000000000000000094
S315000E68F00000000000000000000000000000000084
S315000E69000000000000000000000000000000000073
S315000E69100000000000000000000000000000000063
S315000E69200000000000000000000000000000000053
S315000E69300000000000000000000000000000000043
S315000E69400000000000000000000000000000000033
S309000E6950000000002F
S315000E695401000000000000000000000041A000003D
S315000E69643F8000003FB33333000000003FB33333A0
S315000E69740000000000180018000E6B98000E6BF84D
S315000E6984000E6C58040000003EB40000C1A00000C6
S315000E699400180018000E6B98000E6BF8000E76D8D1
S315000E69A4040000003EB40000C1A000000018001848
S315000E69B4000E6B98000E6BF8000E81580400000052
S315000E69C43EB40000C1A0000000180018000E6B981B
S315000E69D4000E6BF8000E6E98040000003EB4000024
S315000E69E4C1A0000000180018000E6B98000E6BF87C
S315000E69F4000E7918040000003EB40000C1A0000089
S315000E6A0400180018000E6B98000E6BF8000E839893
S315000E6A14040000003EB40000C1A0000000180018D7
S315000E6A24000E70D8000E7138000E71980400000026
S315000E6A343EB40000C1A0000000180018000E7B58DA
S315000E6A44000E7BB8000E7C18040000003EB4000055
S315000E6A54C1A0000000180018000E85D8000E863856
S315000E6A64000E8698040000003EB40000C1A000008B
S315000E6A7400180018000E73D8000E7438000E7498A1
S315000E6A84040000003EB40000C1A000000018001867
S315000E6A94000E7E58000E7EB8000E7F18040000000D
S315000E6AA43EB40000C1A0000000180018000E88D8DD
S315000E6AB4000E8938000E8998040000003EB40000CA
S315000E6AC4C1A00000C1F00000C1A00000C12000005A
S315000E6AD4000000004120000041A0000041F000002B
S315000E6AE4422000004248000042700000428C000022
S315000E6AF442A0000042A0000042B4000042C80000BA
S315000E6B0442DC0000C1F00000C1A00000C12000005C
S315000E6B14000000004120000041A0000041F00000EA
S315000E6B24422000004248000042700000428C0000E1
S315000E6B3442A0000042A0000042B4000042C8000079
S315000E6B4442DC00008080808080808080807D7A7721
S315000E6B5474716F6F8080808080808080808080805A
S315000E6B6480808080000E6978000E6994000E69B0EC
S315000E6B74000E69CC000E69E8000E6A04000E6A2047
S315000E6B84000E6A3C000E6A58000E6A74000E6A9075
S315000E6B94000E6AAC3E4CCCCD3ECCCCCD3F19999A68
S315000E6BA43F4CCCCD3F8000003F99999A3FB3333387
S315000E6BB43FCCCCCD3FE6666640000000400CCCCD03
S315000E6BC44019999A40266666403333334040000096
S315000E6BD4404CCCCD405333334059999A4060000013
S315000E6BE440666666406CCCCD407333334079999AD1
S315000E6BF44080000043FA000044480000449600001A
S315000E6C0444C8000044FA000045160000452F000053
S315000E6C144548000045610000457A00004583400062
S315000E6C2445898000458FC00045960000459C40006E
S315000E6C3445A2800045A8C00045AF000045B54000FA
S315000E6C4445BB800045C8000045D4800045E10000E0
S315000E6C5445ED800046464646464646464646464622
S315000E6C6446464646464646464646464646464646AC
S315000E6C74464646464646464646464646464646469C
S315000E6C84464646464646464646464646464646468C
S315000E6C94464646464646464646464646464646467C
S315000E70D4464646463E4CCCCD3ECCCCCD3F19999A2F
S315000E70E43F4CCCCD3F8000003F99999A3FB3333342
S315000E70F43FCCCCCD3FE6666640000000400CCCCDBE
S315000E71044019999A40266666403333334040000050
S315000E7114404CCCCD405333334059999A40600000CD
S315000E712440666666406CCCCD407333334079999A8B
S315000E71344080000043FA00004448000044960000D4
S315000E714444C8000044FA000045160000452F00000E
S315000E71544548000045610000457A0000458340001D
S315000E716445898000458FC00045960000459C400029
S315000E717445A2800045A8C00045AF000045B54000B5
S315000E718445BB800045C8000045D4800045E100009B
S315000E719445ED800039393939393939393939393979
S315000E71A43939393939393939393939393939393937
S315000E71B43939393939393939393939393939393927
S315000E71C43939393939393939393939393939393917
S315000E71D43939393939393939393939393939393907
S315000E73D4393939393E4CCCCD3ECCCCCD3F19999A60
S315000E73E43F4CCCCD3F8000003F99999A3FB333333F
S315000E73F43FCCCCCD3FE6666640000000400CCCCDBB
S315000E74044019999A4026666640333333404000004D
S315000E7414404CCCCD405333334059999A40600000CA
S315000E742440666666406CCCCD407333334079999A88
S315000E74344080000043FA00004448000044960000D1
S315000E744444C8000044FA000045160000452F00000B
S315000E74544548000045610000457A0000458340001A
S315000E746445898000458FC00045960000459C400026
S315000E747445A2800045A8C00045AF000045B54000B2
S315000E748445BB800045C8000045D4800045E1000098
S315000E749445ED800039393939393939393939393976
S315000E74A43939393939393939393939393939393934
S315000E74B43939393939393939393939393939393924
S315000E74C43939393939393939393939393939393914
S315000E74D43939393939393939393939393939393904
S315000E76D43939393946464646464646464646464666
S315000E76E44646464646464646464646464646464622
S315000E76F44646464646464646464646464646464612
S315000E77044646464646464646464646464646464601
S315000E771446464646464646464646464646464646F1
S315000E7B54464646463E4CCCCD3ECCCCCD3F19999AA4
S315000E7B643F4CCCCD3F8000003F99999A3FB33333B7
S315000E7B743FCCCCCD3FE6666640000000400CCCCD33
S315000E7B844019999A402666664033333340400000C6
S315000E7B94404CCCCD405333334059999A4060000043
S315000E7BA440666666406CCCCD407333334079999A01
S315000E7BB44080000043FA000044480000449600004A
S315000E7BC444C8000044FA000045160000452F000084
S315000E7BD44548000045610000457A00004583400093
S315000E7BE445898000458FC00045960000459C40009F
S315000E7BF445A2800045A8C00045AF000045B540002B
S315000E7C0445BB800045C8000045D4800045E1000010
S315000E7C1445ED8000393939393939393939393939EE
S315000E7C2439393939393939393939393939393939AC
S315000E7C34393939393939393939393939393939399C
S315000E7C44393939393939393939393939393939398C
S315000E7C54393939393939393939393939393939397C
S315000E7E54393939393E4CCCCD3ECCCCCD3F19999AD5
S315000E7E643F4CCCCD3F8000003F99999A3FB33333B4
S315000E7E743FCCCCCD3FE6666640000000400CCCCD30
S315000E7E844019999A402666664033333340400000C3
S315000E7E94404CCCCD405333334059999A4060000040
S315000E7EA440666666406CCCCD407333334079999AFE
S315000E7EB44080000043FA0000444800004496000047
S315000E7EC444C8000044FA000045160000452F000081
S315000E7ED44548000045610000457A00004583400090
S315000E7EE445898000458FC00045960000459C40009C
S315000E7EF445A2800045A8C00045AF000045B5400028
S315000E7F0445BB800045C8000045D4800045E100000D
S315000E7F1445ED8000393939393939393939393939EB
S315000E7F2439393939393939393939393939393939A9
S315000E7F343939393939393939393939393939393999
S315000E7F443939393939393939393939393939393989
S315000E7F543939393939393939393939393939393979
S315000E815439393939464646464646464646464646DB
S315000E81644646464646464646464646464646464697
S315000E81744646464646464646464646464646464687
S315000E81844646464646464646464646464646464677
S315000E81944646464646464646464646464646464667
S315000E85D4464646463E4CCCCD3ECCCCCD3F19999A1A
S315000E85E43F4CCCCD3F8000003F99999A3FB333332D
S315000E85F43FCCCCCD3FE6666640000000400CCCCDA9
S315000E86044019999A4026666640333333404000003B
S315000E8614404CCCCD405333334059999A40600000B8
S315000E862440666666406CCCCD407333334079999A76
S315000E86344080000043FA00004448000044960000BF
S315000E864444C8000044FA000045160000452F0000F9
S315000E86544548000045610000457A00004583400008
S315000E866445898000458FC00045960000459C400014
S315000E867445A2800045A8C00045AF000045B54000A0
S315000E868445BB800045C8000045D4800045E1000086
S315000E869445ED800039393939393939393939393964
S315000E86A43939393939393939393939393939393922
S315000E86B43939393939393939393939393939393912
S315000E86C43939393939393939393939393939393902
S315000E86D439393939393939393939393939393939F2
S315000E88D4393939393E4CCCCD3ECCCCCD3F19999A4B
S315000E88E43F4CCCCD3F8000003F99999A3FB333332A
S315000E88F43FCCCCCD3FE6666640000000400CCCCDA6
S315000E89044019999A40266666403333334040000038
S315000E8914404CCCCD405333334059999A40600000B5
S315000E892440666666406CCCCD407333334079999A73
S315000E89344080000043FA00004448000044960000BC
S315000E894444C8000044FA000045160000452F0000F6
S315000E89544548000045610000457A00004583400005
S315000E896445898000458FC00045960000459C400011
S315000E897445A2800045A8C00045AF000045B540009D
S315000E898445BB800045C8000045D4800045E1000083
S315000E899445ED800039393939393939393939393961
S315000E89A4393939393939393939393939393939391F
S315000E89B4393939393939393939393939393939390F
S315000E89C439393939393939393939393939393939FF
S315000E89D439393939393939393939393939393939EF
S315000E8BD439393939000000004080000040C00000D9
S315000E8BE44100000041400000452F0000453B800037
S315000E8BF445610000457A00004589800045960000CF
S315000E8C0445A2800045AF000045BB800045C8000064
S315000E8C1445D4800045E100003939393939393939B5
S315000E8C24393939393939393B3B3A3A393C3B3B3A8E
S315000E8C34393E3D3C3A393F3E3C3B39413F3D3B395B
S315000E8C4442403E3B3944413F3C3945423F3C39471D
S315000E8C5444403D390005000C000E8BD8000E8BECFB
S315000E8C64000E8C1C040000003EB40000C1A00000DF
S315000E8C74000000003F7AE1473FF99999407A3D702A
S315000E8C8440BB851E40F9EB85411C51EB413B33330A
